{
  "_format": "hh-sol-artifact-1",
  "contractName": "OptimisticBunnies",
  "sourceName": "contracts/test/OptimisticBunnies.sol",
  "abi": [
    {
      "inputs": [
        {
          "internalType": "string",
          "name": "_name",
          "type": "string"
        },
        {
          "internalType": "string",
          "name": "_symbol",
          "type": "string"
        },
        {
          "internalType": "string",
          "name": "_initBaseURI",
          "type": "string"
        },
        {
          "internalType": "string",
          "name": "_initNotRevealedUri",
          "type": "string"
        }
      ],
      "stateMutability": "nonpayable",
      "type": "constructor"
    },
    {
      "anonymous": false,
      "inputs": [
        {
          "indexed": true,
          "internalType": "address",
          "name": "owner",
          "type": "address"
        },
        {
          "indexed": true,
          "internalType": "address",
          "name": "approved",
          "type": "address"
        },
        {
          "indexed": true,
          "internalType": "uint256",
          "name": "tokenId",
          "type": "uint256"
        }
      ],
      "name": "Approval",
      "type": "event"
    },
    {
      "anonymous": false,
      "inputs": [
        {
          "indexed": true,
          "internalType": "address",
          "name": "owner",
          "type": "address"
        },
        {
          "indexed": true,
          "internalType": "address",
          "name": "operator",
          "type": "address"
        },
        {
          "indexed": false,
          "internalType": "bool",
          "name": "approved",
          "type": "bool"
        }
      ],
      "name": "ApprovalForAll",
      "type": "event"
    },
    {
      "anonymous": false,
      "inputs": [
        {
          "indexed": true,
          "internalType": "address",
          "name": "previousOwner",
          "type": "address"
        },
        {
          "indexed": true,
          "internalType": "address",
          "name": "newOwner",
          "type": "address"
        }
      ],
      "name": "OwnershipTransferred",
      "type": "event"
    },
    {
      "anonymous": false,
      "inputs": [
        {
          "indexed": true,
          "internalType": "address",
          "name": "from",
          "type": "address"
        },
        {
          "indexed": true,
          "internalType": "address",
          "name": "to",
          "type": "address"
        },
        {
          "indexed": true,
          "internalType": "uint256",
          "name": "tokenId",
          "type": "uint256"
        }
      ],
      "name": "Transfer",
      "type": "event"
    },
    {
      "inputs": [
        {
          "internalType": "address",
          "name": "to",
          "type": "address"
        },
        {
          "internalType": "uint256",
          "name": "tokenId",
          "type": "uint256"
        }
      ],
      "name": "approve",
      "outputs": [],
      "stateMutability": "nonpayable",
      "type": "function"
    },
    {
      "inputs": [
        {
          "internalType": "address",
          "name": "owner",
          "type": "address"
        }
      ],
      "name": "balanceOf",
      "outputs": [
        {
          "internalType": "uint256",
          "name": "",
          "type": "uint256"
        }
      ],
      "stateMutability": "view",
      "type": "function"
    },
    {
      "inputs": [],
      "name": "baseExtension",
      "outputs": [
        {
          "internalType": "string",
          "name": "",
          "type": "string"
        }
      ],
      "stateMutability": "view",
      "type": "function"
    },
    {
      "inputs": [],
      "name": "cost",
      "outputs": [
        {
          "internalType": "uint256",
          "name": "",
          "type": "uint256"
        }
      ],
      "stateMutability": "view",
      "type": "function"
    },
    {
      "inputs": [
        {
          "internalType": "uint256",
          "name": "tokenId",
          "type": "uint256"
        }
      ],
      "name": "getApproved",
      "outputs": [
        {
          "internalType": "address",
          "name": "",
          "type": "address"
        }
      ],
      "stateMutability": "view",
      "type": "function"
    },
    {
      "inputs": [
        {
          "internalType": "address",
          "name": "owner",
          "type": "address"
        },
        {
          "internalType": "address",
          "name": "operator",
          "type": "address"
        }
      ],
      "name": "isApprovedForAll",
      "outputs": [
        {
          "internalType": "bool",
          "name": "",
          "type": "bool"
        }
      ],
      "stateMutability": "view",
      "type": "function"
    },
    {
      "inputs": [],
      "name": "maxMintAmount",
      "outputs": [
        {
          "internalType": "uint256",
          "name": "",
          "type": "uint256"
        }
      ],
      "stateMutability": "view",
      "type": "function"
    },
    {
      "inputs": [],
      "name": "maxSupply",
      "outputs": [
        {
          "internalType": "uint256",
          "name": "",
          "type": "uint256"
        }
      ],
      "stateMutability": "view",
      "type": "function"
    },
    {
      "inputs": [
        {
          "internalType": "uint256",
          "name": "_mintAmount",
          "type": "uint256"
        }
      ],
      "name": "mint",
      "outputs": [],
      "stateMutability": "payable",
      "type": "function"
    },
    {
      "inputs": [],
      "name": "name",
      "outputs": [
        {
          "internalType": "string",
          "name": "",
          "type": "string"
        }
      ],
      "stateMutability": "view",
      "type": "function"
    },
    {
      "inputs": [],
      "name": "notRevealedUri",
      "outputs": [
        {
          "internalType": "string",
          "name": "",
          "type": "string"
        }
      ],
      "stateMutability": "view",
      "type": "function"
    },
    {
      "inputs": [],
      "name": "owner",
      "outputs": [
        {
          "internalType": "address",
          "name": "",
          "type": "address"
        }
      ],
      "stateMutability": "view",
      "type": "function"
    },
    {
      "inputs": [
        {
          "internalType": "uint256",
          "name": "tokenId",
          "type": "uint256"
        }
      ],
      "name": "ownerOf",
      "outputs": [
        {
          "internalType": "address",
          "name": "",
          "type": "address"
        }
      ],
      "stateMutability": "view",
      "type": "function"
    },
    {
      "inputs": [
        {
          "internalType": "bool",
          "name": "_state",
          "type": "bool"
        }
      ],
      "name": "pause",
      "outputs": [],
      "stateMutability": "nonpayable",
      "type": "function"
    },
    {
      "inputs": [],
      "name": "paused",
      "outputs": [
        {
          "internalType": "bool",
          "name": "",
          "type": "bool"
        }
      ],
      "stateMutability": "view",
      "type": "function"
    },
    {
      "inputs": [],
      "name": "renounceOwnership",
      "outputs": [],
      "stateMutability": "nonpayable",
      "type": "function"
    },
    {
      "inputs": [],
      "name": "reveal",
      "outputs": [],
      "stateMutability": "nonpayable",
      "type": "function"
    },
    {
      "inputs": [],
      "name": "revealed",
      "outputs": [
        {
          "internalType": "bool",
          "name": "",
          "type": "bool"
        }
      ],
      "stateMutability": "view",
      "type": "function"
    },
    {
      "inputs": [
        {
          "internalType": "address",
          "name": "from",
          "type": "address"
        },
        {
          "internalType": "address",
          "name": "to",
          "type": "address"
        },
        {
          "internalType": "uint256",
          "name": "tokenId",
          "type": "uint256"
        }
      ],
      "name": "safeTransferFrom",
      "outputs": [],
      "stateMutability": "nonpayable",
      "type": "function"
    },
    {
      "inputs": [
        {
          "internalType": "address",
          "name": "from",
          "type": "address"
        },
        {
          "internalType": "address",
          "name": "to",
          "type": "address"
        },
        {
          "internalType": "uint256",
          "name": "tokenId",
          "type": "uint256"
        },
        {
          "internalType": "bytes",
          "name": "_data",
          "type": "bytes"
        }
      ],
      "name": "safeTransferFrom",
      "outputs": [],
      "stateMutability": "nonpayable",
      "type": "function"
    },
    {
      "inputs": [
        {
          "internalType": "address",
          "name": "operator",
          "type": "address"
        },
        {
          "internalType": "bool",
          "name": "approved",
          "type": "bool"
        }
      ],
      "name": "setApprovalForAll",
      "outputs": [],
      "stateMutability": "nonpayable",
      "type": "function"
    },
    {
      "inputs": [
        {
          "internalType": "string",
          "name": "_newBaseExtension",
          "type": "string"
        }
      ],
      "name": "setBaseExtension",
      "outputs": [],
      "stateMutability": "nonpayable",
      "type": "function"
    },
    {
      "inputs": [
        {
          "internalType": "string",
          "name": "_newBaseURI",
          "type": "string"
        }
      ],
      "name": "setBaseURI",
      "outputs": [],
      "stateMutability": "nonpayable",
      "type": "function"
    },
    {
      "inputs": [
        {
          "internalType": "uint256",
          "name": "_newCost",
          "type": "uint256"
        }
      ],
      "name": "setCost",
      "outputs": [],
      "stateMutability": "nonpayable",
      "type": "function"
    },
    {
      "inputs": [
        {
          "internalType": "string",
          "name": "_notRevealedURI",
          "type": "string"
        }
      ],
      "name": "setNotRevealedURI",
      "outputs": [],
      "stateMutability": "nonpayable",
      "type": "function"
    },
    {
      "inputs": [
        {
          "internalType": "uint256",
          "name": "_newmaxMintAmount",
          "type": "uint256"
        }
      ],
      "name": "setmaxMintAmount",
      "outputs": [],
      "stateMutability": "nonpayable",
      "type": "function"
    },
    {
      "inputs": [
        {
          "internalType": "bytes4",
          "name": "interfaceId",
          "type": "bytes4"
        }
      ],
      "name": "supportsInterface",
      "outputs": [
        {
          "internalType": "bool",
          "name": "",
          "type": "bool"
        }
      ],
      "stateMutability": "view",
      "type": "function"
    },
    {
      "inputs": [],
      "name": "symbol",
      "outputs": [
        {
          "internalType": "string",
          "name": "",
          "type": "string"
        }
      ],
      "stateMutability": "view",
      "type": "function"
    },
    {
      "inputs": [
        {
          "internalType": "uint256",
          "name": "index",
          "type": "uint256"
        }
      ],
      "name": "tokenByIndex",
      "outputs": [
        {
          "internalType": "uint256",
          "name": "",
          "type": "uint256"
        }
      ],
      "stateMutability": "view",
      "type": "function"
    },
    {
      "inputs": [
        {
          "internalType": "address",
          "name": "owner",
          "type": "address"
        },
        {
          "internalType": "uint256",
          "name": "index",
          "type": "uint256"
        }
      ],
      "name": "tokenOfOwnerByIndex",
      "outputs": [
        {
          "internalType": "uint256",
          "name": "",
          "type": "uint256"
        }
      ],
      "stateMutability": "view",
      "type": "function"
    },
    {
      "inputs": [
        {
          "internalType": "uint256",
          "name": "tokenId",
          "type": "uint256"
        }
      ],
      "name": "tokenURI",
      "outputs": [
        {
          "internalType": "string",
          "name": "",
          "type": "string"
        }
      ],
      "stateMutability": "view",
      "type": "function"
    },
    {
      "inputs": [],
      "name": "totalSupply",
      "outputs": [
        {
          "internalType": "uint256",
          "name": "",
          "type": "uint256"
        }
      ],
      "stateMutability": "view",
      "type": "function"
    },
    {
      "inputs": [
        {
          "internalType": "address",
          "name": "from",
          "type": "address"
        },
        {
          "internalType": "address",
          "name": "to",
          "type": "address"
        },
        {
          "internalType": "uint256",
          "name": "tokenId",
          "type": "uint256"
        }
      ],
      "name": "transferFrom",
      "outputs": [],
      "stateMutability": "nonpayable",
      "type": "function"
    },
    {
      "inputs": [
        {
          "internalType": "address",
          "name": "newOwner",
          "type": "address"
        }
      ],
      "name": "transferOwnership",
      "outputs": [],
      "stateMutability": "nonpayable",
      "type": "function"
    },
    {
      "inputs": [
        {
          "internalType": "address",
          "name": "_owner",
          "type": "address"
        }
      ],
      "name": "walletOfOwner",
      "outputs": [
        {
          "internalType": "uint256[]",
          "name": "",
          "type": "uint256[]"
        }
      ],
      "stateMutability": "view",
      "type": "function"
    },
    {
      "inputs": [],
      "name": "withdraw",
      "outputs": [],
      "stateMutability": "payable",
      "type": "function"
    }
  ],
  "bytecode": "0x60c06040526005608081905264173539b7b760d91b60a09081526200002891600c91906200093c565b5066b1a2bc2ec50000600d5561141f600e55600a600f556010805461ffff191690553480156200005757600080fd5b5060405162003101380380620031018339810160408190526200007a9162000abc565b835184908490620000939060009060208501906200093c565b508051620000a99060019060208401906200093c565b505050620000c6620000c0620000f260201b60201c565b620000f6565b620000d18262000148565b620000dc81620001b0565b620000e8600a62000210565b5050505062000cf2565b3390565b600a80546001600160a01b038381166001600160a01b0319831681179093556040519116919082907f8be0079c531659141344cd1fd0a4f28419497f9722a3daafe3b4186f6b6457e090600090a35050565b600a546001600160a01b03163314620001975760405162461bcd60e51b81526020600482018190526024820152600080516020620030e183398151915260448201526064015b60405180910390fd5b8051620001ac90600b9060208401906200093c565b5050565b600a546001600160a01b03163314620001fb5760405162461bcd60e51b81526020600482018190526024820152600080516020620030e183398151915260448201526064016200018e565b8051620001ac9060119060208401906200093c565b60006200021c60085490565b60105490915060ff16156200023057600080fd5b600082116200023e57600080fd5b600f548211156200024e57600080fd5b600e546200025d838362000b8b565b11156200026957600080fd5b600a546001600160a01b03163314620002995781600d546200028c919062000ba6565b3410156200029957600080fd5b60015b828111620002d057620002bb33620002b5838562000b8b565b620002d5565b80620002c78162000bc8565b9150506200029c565b505050565b620001ac828260405180602001604052806000815250620002f760201b60201c565b6200030383836200036a565b620003126000848484620004c0565b620002d05760405162461bcd60e51b81526020600482015260326024820152600080516020620030c183398151915260448201527131b2b4bb32b91034b6b83632b6b2b73a32b960711b60648201526084016200018e565b6001600160a01b038216620003c25760405162461bcd60e51b815260206004820181905260248201527f4552433732313a206d696e7420746f20746865207a65726f206164647265737360448201526064016200018e565b6000818152600260205260409020546001600160a01b031615620004295760405162461bcd60e51b815260206004820152601c60248201527f4552433732313a20746f6b656e20616c7265616479206d696e7465640000000060448201526064016200018e565b620004376000838362000619565b6001600160a01b03821660009081526003602052604081208054600192906200046290849062000b8b565b909155505060008181526002602052604080822080546001600160a01b0319166001600160a01b03861690811790915590518392907fddf252ad1be2c89b69c2b068fc378daa952ba7f163c4a11628f55a4df523b3ef908290a45050565b6000620004e1846001600160a01b0316620006f560201b620012b51760201c565b156200060d57604051630a85bd0160e11b81526001600160a01b0385169063150b7a02906200051b90339089908890889060040162000be6565b6020604051808303816000875af192505050801562000559575060408051601f3d908101601f19168201909252620005569181019062000c3c565b60015b620005f2573d8080156200058a576040519150601f19603f3d011682016040523d82523d6000602084013e6200058f565b606091505b508051620005ea5760405162461bcd60e51b81526020600482015260326024820152600080516020620030c183398151915260448201527131b2b4bb32b91034b6b83632b6b2b73a32b960711b60648201526084016200018e565b805181602001fd5b6001600160e01b031916630a85bd0160e11b14905062000611565b5060015b949350505050565b62000631838383620002d060201b620009b21760201c565b6001600160a01b0383166200068f576200068981600880546000838152600960205260408120829055600182018355919091527ff3f7a9fe364faab93b216da50a3214154f22a0a2b415b23a84c8169e8b636ee30155565b620006b5565b816001600160a01b0316836001600160a01b031614620006b557620006b58382620006fb565b6001600160a01b038216620006cf57620002d081620007a8565b826001600160a01b0316826001600160a01b031614620002d057620002d0828262000862565b3b151590565b600060016200071584620008b360201b62000d371760201c565b62000721919062000c6f565b60008381526007602052604090205490915080821462000775576001600160a01b03841660009081526006602090815260408083208584528252808320548484528184208190558352600790915290208190555b5060009182526007602090815260408084208490556001600160a01b039094168352600681528383209183525290812055565b600854600090620007bc9060019062000c6f565b60008381526009602052604081205460088054939450909284908110620007e757620007e762000c89565b9060005260206000200154905080600883815481106200080b576200080b62000c89565b600091825260208083209091019290925582815260099091526040808220849055858252812055600880548062000846576200084662000c9f565b6001900381819060005260206000200160009055905550505050565b60006200087a83620008b360201b62000d371760201c565b6001600160a01b039093166000908152600660209081526040808320868452825280832085905593825260079052919091209190915550565b60006001600160a01b038216620009205760405162461bcd60e51b815260206004820152602a60248201527f4552433732313a2062616c616e636520717565727920666f7220746865207a65604482015269726f206164647265737360b01b60648201526084016200018e565b506001600160a01b031660009081526003602052604090205490565b8280546200094a9062000cb5565b90600052602060002090601f0160209004810192826200096e5760008555620009b9565b82601f106200098957805160ff1916838001178555620009b9565b82800160010185558215620009b9579182015b82811115620009b95782518255916020019190600101906200099c565b50620009c7929150620009cb565b5090565b5b80821115620009c75760008155600101620009cc565b634e487b7160e01b600052604160045260246000fd5b60005b8381101562000a15578181015183820152602001620009fb565b8381111562000a25576000848401525b50505050565b600082601f83011262000a3d57600080fd5b81516001600160401b038082111562000a5a5762000a5a620009e2565b604051601f8301601f19908116603f0116810190828211818310171562000a855762000a85620009e2565b8160405283815286602085880101111562000a9f57600080fd5b62000ab2846020830160208901620009f8565b9695505050505050565b6000806000806080858703121562000ad357600080fd5b84516001600160401b038082111562000aeb57600080fd5b62000af98883890162000a2b565b9550602087015191508082111562000b1057600080fd5b62000b1e8883890162000a2b565b9450604087015191508082111562000b3557600080fd5b62000b438883890162000a2b565b9350606087015191508082111562000b5a57600080fd5b5062000b698782880162000a2b565b91505092959194509250565b634e487b7160e01b600052601160045260246000fd5b6000821982111562000ba15762000ba162000b75565b500190565b600081600019048311821515161562000bc35762000bc362000b75565b500290565b600060001982141562000bdf5762000bdf62000b75565b5060010190565b600060018060a01b03808716835280861660208401525083604083015260806060830152825180608084015262000c258160a0850160208701620009f8565b601f01601f19169190910160a00195945050505050565b60006020828403121562000c4f57600080fd5b81516001600160e01b03198116811462000c6857600080fd5b9392505050565b60008282101562000c845762000c8462000b75565b500390565b634e487b7160e01b600052603260045260246000fd5b634e487b7160e01b600052603160045260246000fd5b600181811c9082168062000cca57607f821691505b6020821081141562000cec57634e487b7160e01b600052602260045260246000fd5b50919050565b6123bf8062000d026000396000f3fe60806040526004361061020f5760003560e01c80635c975abb11610118578063a475b5dd116100a0578063d5abeb011161006f578063d5abeb01146105bc578063da3ef23f146105d2578063e985e9c5146105f2578063f2c4ce1e1461063b578063f2fde38b1461065b57600080fd5b8063a475b5dd14610552578063b88d4fde14610567578063c668286214610587578063c87b56dd1461059c57600080fd5b80637f00c7a6116100e75780637f00c7a6146104cc5780638da5cb5b146104ec57806395d89b411461050a578063a0712d681461051f578063a22cb4651461053257600080fd5b80635c975abb1461045d5780636352211e1461047757806370a0823114610497578063715018a6146104b757600080fd5b806323b872dd1161019b578063438b63001161016a578063438b6300146103b157806344a0d68a146103de5780634f6ccce7146103fe578063518302271461041e57806355f804b31461043d57600080fd5b806323b872dd146103495780632f745c59146103695780633ccfd60b1461038957806342842e0e1461039157600080fd5b8063081c8c44116101e2578063081c8c44146102c5578063095ea7b3146102da57806313faede6146102fa57806318160ddd1461031e578063239c70ae1461033357600080fd5b806301ffc9a71461021457806302329a291461024957806306fdde031461026b578063081812fc1461028d575b600080fd5b34801561022057600080fd5b5061023461022f366004611d3d565b61067b565b60405190151581526020015b60405180910390f35b34801561025557600080fd5b50610269610264366004611d6f565b6106a6565b005b34801561027757600080fd5b506102806106ec565b6040516102409190611de2565b34801561029957600080fd5b506102ad6102a8366004611df5565b61077e565b6040516001600160a01b039091168152602001610240565b3480156102d157600080fd5b50610280610813565b3480156102e657600080fd5b506102696102f5366004611e25565b6108a1565b34801561030657600080fd5b50610310600d5481565b604051908152602001610240565b34801561032a57600080fd5b50600854610310565b34801561033f57600080fd5b50610310600f5481565b34801561035557600080fd5b50610269610364366004611e4f565b6109b7565b34801561037557600080fd5b50610310610384366004611e25565b6109e8565b610269610a7e565b34801561039d57600080fd5b506102696103ac366004611e4f565b610b00565b3480156103bd57600080fd5b506103d16103cc366004611e8b565b610b1b565b6040516102409190611ea6565b3480156103ea57600080fd5b506102696103f9366004611df5565b610bbd565b34801561040a57600080fd5b50610310610419366004611df5565b610bec565b34801561042a57600080fd5b5060105461023490610100900460ff1681565b34801561044957600080fd5b50610269610458366004611f76565b610c7f565b34801561046957600080fd5b506010546102349060ff1681565b34801561048357600080fd5b506102ad610492366004611df5565b610cc0565b3480156104a357600080fd5b506103106104b2366004611e8b565b610d37565b3480156104c357600080fd5b50610269610dbe565b3480156104d857600080fd5b506102696104e7366004611df5565b610df4565b3480156104f857600080fd5b50600a546001600160a01b03166102ad565b34801561051657600080fd5b50610280610e23565b61026961052d366004611df5565b610e32565b34801561053e57600080fd5b5061026961054d366004611fbf565b610edf565b34801561055e57600080fd5b50610269610fa4565b34801561057357600080fd5b50610269610582366004611ff2565b610fdf565b34801561059357600080fd5b50610280611017565b3480156105a857600080fd5b506102806105b7366004611df5565b611024565b3480156105c857600080fd5b50610310600e5481565b3480156105de57600080fd5b506102696105ed366004611f76565b6111a3565b3480156105fe57600080fd5b5061023461060d36600461206e565b6001600160a01b03918216600090815260056020908152604080832093909416825291909152205460ff1690565b34801561064757600080fd5b50610269610656366004611f76565b6111e0565b34801561066757600080fd5b50610269610676366004611e8b565b61121d565b60006001600160e01b0319821663780e9d6360e01b14806106a057506106a0826112bb565b92915050565b600a546001600160a01b031633146106d95760405162461bcd60e51b81526004016106d090612098565b60405180910390fd5b6010805460ff1916911515919091179055565b6060600080546106fb906120cd565b80601f0160208091040260200160405190810160405280929190818152602001828054610727906120cd565b80156107745780601f1061074957610100808354040283529160200191610774565b820191906000526020600020905b81548152906001019060200180831161075757829003601f168201915b5050505050905090565b6000818152600260205260408120546001600160a01b03166107f75760405162461bcd60e51b815260206004820152602c60248201527f4552433732313a20617070726f76656420717565727920666f72206e6f6e657860448201526b34b9ba32b73a103a37b5b2b760a11b60648201526084016106d0565b506000908152600460205260409020546001600160a01b031690565b60118054610820906120cd565b80601f016020809104026020016040519081016040528092919081815260200182805461084c906120cd565b80156108995780601f1061086e57610100808354040283529160200191610899565b820191906000526020600020905b81548152906001019060200180831161087c57829003601f168201915b505050505081565b60006108ac82610cc0565b9050806001600160a01b0316836001600160a01b0316141561091a5760405162461bcd60e51b815260206004820152602160248201527f4552433732313a20617070726f76616c20746f2063757272656e74206f776e656044820152603960f91b60648201526084016106d0565b336001600160a01b03821614806109365750610936813361060d565b6109a85760405162461bcd60e51b815260206004820152603860248201527f4552433732313a20617070726f76652063616c6c6572206973206e6f74206f7760448201527f6e6572206e6f7220617070726f76656420666f7220616c6c000000000000000060648201526084016106d0565b6109b2838361130b565b505050565b6109c13382611379565b6109dd5760405162461bcd60e51b81526004016106d090612108565b6109b2838383611470565b60006109f383610d37565b8210610a555760405162461bcd60e51b815260206004820152602b60248201527f455243373231456e756d657261626c653a206f776e657220696e646578206f7560448201526a74206f6620626f756e647360a81b60648201526084016106d0565b506001600160a01b03919091166000908152600660209081526040808320938352929052205490565b600a546001600160a01b03163314610aa85760405162461bcd60e51b81526004016106d090612098565b604051600090339047908381818185875af1925050503d8060008114610aea576040519150601f19603f3d011682016040523d82523d6000602084013e610aef565b606091505b5050905080610afd57600080fd5b50565b6109b283838360405180602001604052806000815250610fdf565b60606000610b2883610d37565b905060008167ffffffffffffffff811115610b4557610b45611eea565b604051908082528060200260200182016040528015610b6e578160200160208202803683370190505b50905060005b82811015610bb557610b8685826109e8565b828281518110610b9857610b98612159565b602090810291909101015280610bad81612185565b915050610b74565b509392505050565b600a546001600160a01b03163314610be75760405162461bcd60e51b81526004016106d090612098565b600d55565b6000610bf760085490565b8210610c5a5760405162461bcd60e51b815260206004820152602c60248201527f455243373231456e756d657261626c653a20676c6f62616c20696e646578206f60448201526b7574206f6620626f756e647360a01b60648201526084016106d0565b60088281548110610c6d57610c6d612159565b90600052602060002001549050919050565b600a546001600160a01b03163314610ca95760405162461bcd60e51b81526004016106d090612098565b8051610cbc90600b906020840190611c8e565b5050565b6000818152600260205260408120546001600160a01b0316806106a05760405162461bcd60e51b815260206004820152602960248201527f4552433732313a206f776e657220717565727920666f72206e6f6e657869737460448201526832b73a103a37b5b2b760b91b60648201526084016106d0565b60006001600160a01b038216610da25760405162461bcd60e51b815260206004820152602a60248201527f4552433732313a2062616c616e636520717565727920666f7220746865207a65604482015269726f206164647265737360b01b60648201526084016106d0565b506001600160a01b031660009081526003602052604090205490565b600a546001600160a01b03163314610de85760405162461bcd60e51b81526004016106d090612098565b610df2600061161b565b565b600a546001600160a01b03163314610e1e5760405162461bcd60e51b81526004016106d090612098565b600f55565b6060600180546106fb906120cd565b6000610e3d60085490565b60105490915060ff1615610e5057600080fd5b60008211610e5d57600080fd5b600f54821115610e6c57600080fd5b600e54610e7983836121a0565b1115610e8457600080fd5b600a546001600160a01b03163314610eb05781600d54610ea491906121b8565b341015610eb057600080fd5b60015b8281116109b257610ecd33610ec883856121a0565b61166d565b80610ed781612185565b915050610eb3565b6001600160a01b038216331415610f385760405162461bcd60e51b815260206004820152601960248201527f4552433732313a20617070726f766520746f2063616c6c65720000000000000060448201526064016106d0565b3360008181526005602090815260408083206001600160a01b03871680855290835292819020805460ff191686151590811790915590519081529192917f17307eab39ab6107e8899845ad3d59bd9653f200f220920489ca2b5937696c31910160405180910390a35050565b600a546001600160a01b03163314610fce5760405162461bcd60e51b81526004016106d090612098565b6010805461ff001916610100179055565b610fe93383611379565b6110055760405162461bcd60e51b81526004016106d090612108565b61101184848484611687565b50505050565b600c8054610820906120cd565b6000818152600260205260409020546060906001600160a01b03166110a35760405162461bcd60e51b815260206004820152602f60248201527f4552433732314d657461646174613a2055524920717565727920666f72206e6f60448201526e3732bc34b9ba32b73a103a37b5b2b760891b60648201526084016106d0565b601054610100900460ff1661114457601180546110bf906120cd565b80601f01602080910402602001604051908101604052809291908181526020018280546110eb906120cd565b80156111385780601f1061110d57610100808354040283529160200191611138565b820191906000526020600020905b81548152906001019060200180831161111b57829003601f168201915b50505050509050919050565b600061114e6116ba565b9050600081511161116e576040518060200160405280600081525061119c565b80611178846116c9565b600c60405160200161118c939291906121d7565b6040516020818303038152906040525b9392505050565b600a546001600160a01b031633146111cd5760405162461bcd60e51b81526004016106d090612098565b8051610cbc90600c906020840190611c8e565b600a546001600160a01b0316331461120a5760405162461bcd60e51b81526004016106d090612098565b8051610cbc906011906020840190611c8e565b600a546001600160a01b031633146112475760405162461bcd60e51b81526004016106d090612098565b6001600160a01b0381166112ac5760405162461bcd60e51b815260206004820152602660248201527f4f776e61626c653a206e6577206f776e657220697320746865207a65726f206160448201526564647265737360d01b60648201526084016106d0565b610afd8161161b565b3b151590565b60006001600160e01b031982166380ac58cd60e01b14806112ec57506001600160e01b03198216635b5e139f60e01b145b806106a057506301ffc9a760e01b6001600160e01b03198316146106a0565b600081815260046020526040902080546001600160a01b0319166001600160a01b038416908117909155819061134082610cc0565b6001600160a01b03167f8c5be1e5ebec7d5bd14f71427d1e84f3dd0314c0f7b2291e5b200ac8c7c3b92560405160405180910390a45050565b6000818152600260205260408120546001600160a01b03166113f25760405162461bcd60e51b815260206004820152602c60248201527f4552433732313a206f70657261746f7220717565727920666f72206e6f6e657860448201526b34b9ba32b73a103a37b5b2b760a11b60648201526084016106d0565b60006113fd83610cc0565b9050806001600160a01b0316846001600160a01b031614806114385750836001600160a01b031661142d8461077e565b6001600160a01b0316145b8061146857506001600160a01b0380821660009081526005602090815260408083209388168352929052205460ff165b949350505050565b826001600160a01b031661148382610cc0565b6001600160a01b0316146114eb5760405162461bcd60e51b815260206004820152602960248201527f4552433732313a207472616e73666572206f6620746f6b656e2074686174206960448201526839903737ba1037bbb760b91b60648201526084016106d0565b6001600160a01b03821661154d5760405162461bcd60e51b8152602060048201526024808201527f4552433732313a207472616e7366657220746f20746865207a65726f206164646044820152637265737360e01b60648201526084016106d0565b6115588383836117c7565b61156360008261130b565b6001600160a01b038316600090815260036020526040812080546001929061158c90849061229b565b90915550506001600160a01b03821660009081526003602052604081208054600192906115ba9084906121a0565b909155505060008181526002602052604080822080546001600160a01b0319166001600160a01b0386811691821790925591518493918716917fddf252ad1be2c89b69c2b068fc378daa952ba7f163c4a11628f55a4df523b3ef91a4505050565b600a80546001600160a01b038381166001600160a01b0319831681179093556040519116919082907f8be0079c531659141344cd1fd0a4f28419497f9722a3daafe3b4186f6b6457e090600090a35050565b610cbc82826040518060200160405280600081525061187f565b611692848484611470565b61169e848484846118b2565b6110115760405162461bcd60e51b81526004016106d0906122b2565b6060600b80546106fb906120cd565b6060816116ed5750506040805180820190915260018152600360fc1b602082015290565b8160005b8115611717578061170181612185565b91506117109050600a8361231a565b91506116f1565b60008167ffffffffffffffff81111561173257611732611eea565b6040519080825280601f01601f19166020018201604052801561175c576020820181803683370190505b5090505b84156114685761177160018361229b565b915061177e600a8661232e565b6117899060306121a0565b60f81b81838151811061179e5761179e612159565b60200101906001600160f81b031916908160001a9053506117c0600a8661231a565b9450611760565b6001600160a01b0383166118225761181d81600880546000838152600960205260408120829055600182018355919091527ff3f7a9fe364faab93b216da50a3214154f22a0a2b415b23a84c8169e8b636ee30155565b611845565b816001600160a01b0316836001600160a01b0316146118455761184583826119b0565b6001600160a01b03821661185c576109b281611a4d565b826001600160a01b0316826001600160a01b0316146109b2576109b28282611afc565b6118898383611b40565b61189660008484846118b2565b6109b25760405162461bcd60e51b81526004016106d0906122b2565b60006001600160a01b0384163b156119a557604051630a85bd0160e11b81526001600160a01b0385169063150b7a02906118f6903390899088908890600401612342565b6020604051808303816000875af1925050508015611931575060408051601f3d908101601f1916820190925261192e9181019061237f565b60015b61198b573d80801561195f576040519150601f19603f3d011682016040523d82523d6000602084013e611964565b606091505b5080516119835760405162461bcd60e51b81526004016106d0906122b2565b805181602001fd5b6001600160e01b031916630a85bd0160e11b149050611468565b506001949350505050565b600060016119bd84610d37565b6119c7919061229b565b600083815260076020526040902054909150808214611a1a576001600160a01b03841660009081526006602090815260408083208584528252808320548484528184208190558352600790915290208190555b5060009182526007602090815260408084208490556001600160a01b039094168352600681528383209183525290812055565b600854600090611a5f9060019061229b565b60008381526009602052604081205460088054939450909284908110611a8757611a87612159565b906000526020600020015490508060088381548110611aa857611aa8612159565b6000918252602080832090910192909255828152600990915260408082208490558582528120556008805480611ae057611ae061239c565b6001900381819060005260206000200160009055905550505050565b6000611b0783610d37565b6001600160a01b039093166000908152600660209081526040808320868452825280832085905593825260079052919091209190915550565b6001600160a01b038216611b965760405162461bcd60e51b815260206004820181905260248201527f4552433732313a206d696e7420746f20746865207a65726f206164647265737360448201526064016106d0565b6000818152600260205260409020546001600160a01b031615611bfb5760405162461bcd60e51b815260206004820152601c60248201527f4552433732313a20746f6b656e20616c7265616479206d696e7465640000000060448201526064016106d0565b611c07600083836117c7565b6001600160a01b0382166000908152600360205260408120805460019290611c309084906121a0565b909155505060008181526002602052604080822080546001600160a01b0319166001600160a01b03861690811790915590518392907fddf252ad1be2c89b69c2b068fc378daa952ba7f163c4a11628f55a4df523b3ef908290a45050565b828054611c9a906120cd565b90600052602060002090601f016020900481019282611cbc5760008555611d02565b82601f10611cd557805160ff1916838001178555611d02565b82800160010185558215611d02579182015b82811115611d02578251825591602001919060010190611ce7565b50611d0e929150611d12565b5090565b5b80821115611d0e5760008155600101611d13565b6001600160e01b031981168114610afd57600080fd5b600060208284031215611d4f57600080fd5b813561119c81611d27565b80358015158114611d6a57600080fd5b919050565b600060208284031215611d8157600080fd5b61119c82611d5a565b60005b83811015611da5578181015183820152602001611d8d565b838111156110115750506000910152565b60008151808452611dce816020860160208601611d8a565b601f01601f19169290920160200192915050565b60208152600061119c6020830184611db6565b600060208284031215611e0757600080fd5b5035919050565b80356001600160a01b0381168114611d6a57600080fd5b60008060408385031215611e3857600080fd5b611e4183611e0e565b946020939093013593505050565b600080600060608486031215611e6457600080fd5b611e6d84611e0e565b9250611e7b60208501611e0e565b9150604084013590509250925092565b600060208284031215611e9d57600080fd5b61119c82611e0e565b6020808252825182820181905260009190848201906040850190845b81811015611ede57835183529284019291840191600101611ec2565b50909695505050505050565b634e487b7160e01b600052604160045260246000fd5b600067ffffffffffffffff80841115611f1b57611f1b611eea565b604051601f8501601f19908116603f01168101908282118183101715611f4357611f43611eea565b81604052809350858152868686011115611f5c57600080fd5b858560208301376000602087830101525050509392505050565b600060208284031215611f8857600080fd5b813567ffffffffffffffff811115611f9f57600080fd5b8201601f81018413611fb057600080fd5b61146884823560208401611f00565b60008060408385031215611fd257600080fd5b611fdb83611e0e565b9150611fe960208401611d5a565b90509250929050565b6000806000806080858703121561200857600080fd5b61201185611e0e565b935061201f60208601611e0e565b925060408501359150606085013567ffffffffffffffff81111561204257600080fd5b8501601f8101871361205357600080fd5b61206287823560208401611f00565b91505092959194509250565b6000806040838503121561208157600080fd5b61208a83611e0e565b9150611fe960208401611e0e565b6020808252818101527f4f776e61626c653a2063616c6c6572206973206e6f7420746865206f776e6572604082015260600190565b600181811c908216806120e157607f821691505b6020821081141561210257634e487b7160e01b600052602260045260246000fd5b50919050565b60208082526031908201527f4552433732313a207472616e736665722063616c6c6572206973206e6f74206f6040820152701ddb995c881b9bdc88185c1c1c9bdd9959607a1b606082015260800190565b634e487b7160e01b600052603260045260246000fd5b634e487b7160e01b600052601160045260246000fd5b60006000198214156121995761219961216f565b5060010190565b600082198211156121b3576121b361216f565b500190565b60008160001904831182151516156121d2576121d261216f565b500290565b6000845160206121ea8285838a01611d8a565b8551918401916121fd8184848a01611d8a565b8554920191600090600181811c908083168061221a57607f831692505b85831081141561223857634e487b7160e01b85526022600452602485fd5b80801561224c576001811461225d5761228a565b60ff1985168852838801955061228a565b60008b81526020902060005b858110156122825781548a820152908401908801612269565b505083880195505b50939b9a5050505050505050505050565b6000828210156122ad576122ad61216f565b500390565b60208082526032908201527f4552433732313a207472616e7366657220746f206e6f6e20455243373231526560408201527131b2b4bb32b91034b6b83632b6b2b73a32b960711b606082015260800190565b634e487b7160e01b600052601260045260246000fd5b60008261232957612329612304565b500490565b60008261233d5761233d612304565b500690565b6001600160a01b038581168252841660208201526040810183905260806060820181905260009061237590830184611db6565b9695505050505050565b60006020828403121561239157600080fd5b815161119c81611d27565b634e487b7160e01b600052603160045260246000fdfea164736f6c634300080a000a4552433732313a207472616e7366657220746f206e6f6e2045524337323152654f776e61626c653a2063616c6c6572206973206e6f7420746865206f776e6572",
  "linkReferences": {},
  "deployedLinkReferences": {}
}