{
  "_format": "hh-sol-artifact-1",
  "contractName": "OptiPunks",
  "sourceName": "contracts/OptiPunks.sol",
  "abi": [
    {
      "inputs": [],
      "stateMutability": "nonpayable",
      "type": "constructor"
    },
    {
      "anonymous": false,
      "inputs": [
        {
          "indexed": true,
          "internalType": "address",
          "name": "owner",
          "type": "address"
        },
        {
          "indexed": true,
          "internalType": "address",
          "name": "approved",
          "type": "address"
        },
        {
          "indexed": true,
          "internalType": "uint256",
          "name": "tokenId",
          "type": "uint256"
        }
      ],
      "name": "Approval",
      "type": "event"
    },
    {
      "anonymous": false,
      "inputs": [
        {
          "indexed": true,
          "internalType": "address",
          "name": "owner",
          "type": "address"
        },
        {
          "indexed": true,
          "internalType": "address",
          "name": "operator",
          "type": "address"
        },
        {
          "indexed": false,
          "internalType": "bool",
          "name": "approved",
          "type": "bool"
        }
      ],
      "name": "ApprovalForAll",
      "type": "event"
    },
    {
      "anonymous": false,
      "inputs": [
        {
          "indexed": true,
          "internalType": "address",
          "name": "previousOwner",
          "type": "address"
        },
        {
          "indexed": true,
          "internalType": "address",
          "name": "newOwner",
          "type": "address"
        }
      ],
      "name": "OwnershipTransferred",
      "type": "event"
    },
    {
      "anonymous": false,
      "inputs": [
        {
          "indexed": true,
          "internalType": "address",
          "name": "from",
          "type": "address"
        },
        {
          "indexed": true,
          "internalType": "address",
          "name": "to",
          "type": "address"
        },
        {
          "indexed": true,
          "internalType": "uint256",
          "name": "tokenId",
          "type": "uint256"
        }
      ],
      "name": "Transfer",
      "type": "event"
    },
    {
      "inputs": [],
      "name": "MAX_NFT_PURCHASE",
      "outputs": [
        {
          "internalType": "uint256",
          "name": "",
          "type": "uint256"
        }
      ],
      "stateMutability": "view",
      "type": "function"
    },
    {
      "inputs": [],
      "name": "MAX_SUPPLY",
      "outputs": [
        {
          "internalType": "uint256",
          "name": "",
          "type": "uint256"
        }
      ],
      "stateMutability": "view",
      "type": "function"
    },
    {
      "inputs": [],
      "name": "NFT_PRICE",
      "outputs": [
        {
          "internalType": "uint256",
          "name": "",
          "type": "uint256"
        }
      ],
      "stateMutability": "view",
      "type": "function"
    },
    {
      "inputs": [
        {
          "internalType": "address",
          "name": "to",
          "type": "address"
        },
        {
          "internalType": "uint256",
          "name": "tokenId",
          "type": "uint256"
        }
      ],
      "name": "approve",
      "outputs": [],
      "stateMutability": "nonpayable",
      "type": "function"
    },
    {
      "inputs": [
        {
          "internalType": "address",
          "name": "owner",
          "type": "address"
        }
      ],
      "name": "balanceOf",
      "outputs": [
        {
          "internalType": "uint256",
          "name": "",
          "type": "uint256"
        }
      ],
      "stateMutability": "view",
      "type": "function"
    },
    {
      "inputs": [],
      "name": "flipSaleState",
      "outputs": [],
      "stateMutability": "nonpayable",
      "type": "function"
    },
    {
      "inputs": [
        {
          "internalType": "uint256",
          "name": "tokenId",
          "type": "uint256"
        }
      ],
      "name": "getApproved",
      "outputs": [
        {
          "internalType": "address",
          "name": "",
          "type": "address"
        }
      ],
      "stateMutability": "view",
      "type": "function"
    },
    {
      "inputs": [
        {
          "internalType": "address",
          "name": "owner",
          "type": "address"
        },
        {
          "internalType": "address",
          "name": "operator",
          "type": "address"
        }
      ],
      "name": "isApprovedForAll",
      "outputs": [
        {
          "internalType": "bool",
          "name": "",
          "type": "bool"
        }
      ],
      "stateMutability": "view",
      "type": "function"
    },
    {
      "inputs": [
        {
          "internalType": "uint256",
          "name": "numberOfTokens",
          "type": "uint256"
        }
      ],
      "name": "mintOptiPunk",
      "outputs": [],
      "stateMutability": "payable",
      "type": "function"
    },
    {
      "inputs": [],
      "name": "name",
      "outputs": [
        {
          "internalType": "string",
          "name": "",
          "type": "string"
        }
      ],
      "stateMutability": "view",
      "type": "function"
    },
    {
      "inputs": [],
      "name": "owner",
      "outputs": [
        {
          "internalType": "address",
          "name": "",
          "type": "address"
        }
      ],
      "stateMutability": "view",
      "type": "function"
    },
    {
      "inputs": [
        {
          "internalType": "uint256",
          "name": "tokenId",
          "type": "uint256"
        }
      ],
      "name": "ownerOf",
      "outputs": [
        {
          "internalType": "address",
          "name": "",
          "type": "address"
        }
      ],
      "stateMutability": "view",
      "type": "function"
    },
    {
      "inputs": [],
      "name": "renounceOwnership",
      "outputs": [],
      "stateMutability": "nonpayable",
      "type": "function"
    },
    {
      "inputs": [
        {
          "internalType": "address",
          "name": "from",
          "type": "address"
        },
        {
          "internalType": "address",
          "name": "to",
          "type": "address"
        },
        {
          "internalType": "uint256",
          "name": "tokenId",
          "type": "uint256"
        }
      ],
      "name": "safeTransferFrom",
      "outputs": [],
      "stateMutability": "nonpayable",
      "type": "function"
    },
    {
      "inputs": [
        {
          "internalType": "address",
          "name": "from",
          "type": "address"
        },
        {
          "internalType": "address",
          "name": "to",
          "type": "address"
        },
        {
          "internalType": "uint256",
          "name": "tokenId",
          "type": "uint256"
        },
        {
          "internalType": "bytes",
          "name": "_data",
          "type": "bytes"
        }
      ],
      "name": "safeTransferFrom",
      "outputs": [],
      "stateMutability": "nonpayable",
      "type": "function"
    },
    {
      "inputs": [],
      "name": "saleIsActive",
      "outputs": [
        {
          "internalType": "bool",
          "name": "",
          "type": "bool"
        }
      ],
      "stateMutability": "view",
      "type": "function"
    },
    {
      "inputs": [
        {
          "internalType": "address",
          "name": "operator",
          "type": "address"
        },
        {
          "internalType": "bool",
          "name": "approved",
          "type": "bool"
        }
      ],
      "name": "setApprovalForAll",
      "outputs": [],
      "stateMutability": "nonpayable",
      "type": "function"
    },
    {
      "inputs": [
        {
          "internalType": "string",
          "name": "baseURI_",
          "type": "string"
        }
      ],
      "name": "setBaseURI",
      "outputs": [],
      "stateMutability": "nonpayable",
      "type": "function"
    },
    {
      "inputs": [
        {
          "internalType": "bytes4",
          "name": "interfaceId",
          "type": "bytes4"
        }
      ],
      "name": "supportsInterface",
      "outputs": [
        {
          "internalType": "bool",
          "name": "",
          "type": "bool"
        }
      ],
      "stateMutability": "view",
      "type": "function"
    },
    {
      "inputs": [],
      "name": "symbol",
      "outputs": [
        {
          "internalType": "string",
          "name": "",
          "type": "string"
        }
      ],
      "stateMutability": "view",
      "type": "function"
    },
    {
      "inputs": [
        {
          "internalType": "uint256",
          "name": "index",
          "type": "uint256"
        }
      ],
      "name": "tokenByIndex",
      "outputs": [
        {
          "internalType": "uint256",
          "name": "",
          "type": "uint256"
        }
      ],
      "stateMutability": "view",
      "type": "function"
    },
    {
      "inputs": [
        {
          "internalType": "address",
          "name": "owner",
          "type": "address"
        },
        {
          "internalType": "uint256",
          "name": "index",
          "type": "uint256"
        }
      ],
      "name": "tokenOfOwnerByIndex",
      "outputs": [
        {
          "internalType": "uint256",
          "name": "",
          "type": "uint256"
        }
      ],
      "stateMutability": "view",
      "type": "function"
    },
    {
      "inputs": [
        {
          "internalType": "uint256",
          "name": "tokenId",
          "type": "uint256"
        }
      ],
      "name": "tokenURI",
      "outputs": [
        {
          "internalType": "string",
          "name": "",
          "type": "string"
        }
      ],
      "stateMutability": "view",
      "type": "function"
    },
    {
      "inputs": [],
      "name": "totalSupply",
      "outputs": [
        {
          "internalType": "uint256",
          "name": "",
          "type": "uint256"
        }
      ],
      "stateMutability": "view",
      "type": "function"
    },
    {
      "inputs": [
        {
          "internalType": "address",
          "name": "from",
          "type": "address"
        },
        {
          "internalType": "address",
          "name": "to",
          "type": "address"
        },
        {
          "internalType": "uint256",
          "name": "tokenId",
          "type": "uint256"
        }
      ],
      "name": "transferFrom",
      "outputs": [],
      "stateMutability": "nonpayable",
      "type": "function"
    },
    {
      "inputs": [
        {
          "internalType": "address",
          "name": "newOwner",
          "type": "address"
        }
      ],
      "name": "transferOwnership",
      "outputs": [],
      "stateMutability": "nonpayable",
      "type": "function"
    },
    {
      "inputs": [],
      "name": "withdraw",
      "outputs": [],
      "stateMutability": "nonpayable",
      "type": "function"
    }
  ],
  "bytecode": "0x6080604052612710600b556000600c60006101000a81548160ff0219169083151502179055503480156200003257600080fd5b506040518060400160405280600881526020017f4f70746950756e6b0000000000000000000000000000000000000000000000008152506040518060400160405280600681526020017f4f5050554e4b00000000000000000000000000000000000000000000000000008152508160009080519060200190620000b792919062000192565b508060019080519060200190620000d092919062000192565b5050506000620000e56200018a60201b60201c565b905080600a60006101000a81548173ffffffffffffffffffffffffffffffffffffffff021916908373ffffffffffffffffffffffffffffffffffffffff1602179055508073ffffffffffffffffffffffffffffffffffffffff16600073ffffffffffffffffffffffffffffffffffffffff167f8be0079c531659141344cd1fd0a4f28419497f9722a3daafe3b4186f6b6457e060405160405180910390a350620002a7565b600033905090565b828054620001a09062000242565b90600052602060002090601f016020900481019282620001c4576000855562000210565b82601f10620001df57805160ff191683800117855562000210565b8280016001018555821562000210579182015b828111156200020f578251825591602001919060010190620001f2565b5b5090506200021f919062000223565b5090565b5b808211156200023e57600081600090555060010162000224565b5090565b600060028204905060018216806200025b57607f821691505b6020821081141562000272576200027162000278565b5b50919050565b7f4e487b7100000000000000000000000000000000000000000000000000000000600052602260045260246000fd5b61417580620002b76000396000f3fe60806040526004361061019c5760003560e01c80634f6ccce7116100ec57806395d89b411161008a578063c87b56dd11610064578063c87b56dd14610593578063e985e9c5146105d0578063eb8d24441461060d578063f2fde38b146106385761019c565b806395d89b4114610516578063a22cb46514610541578063b88d4fde1461056a5761019c565b8063676dd563116100c6578063676dd5631461046c57806370a0823114610497578063715018a6146104d45780638da5cb5b146104eb5761019c565b80634f6ccce7146103c957806355f804b3146104065780636352211e1461042f5761019c565b806318160ddd1161015957806332cb6b0c1161013357806332cb6b0c1461034757806334918dfd146103725780633ccfd60b1461038957806342842e0e146103a05761019c565b806318160ddd146102b657806323b872dd146102e15780632f745c591461030a5761019c565b806301ffc9a7146101a1578063020b39cc146101de57806306fdde0314610209578063081812fc14610234578063095ea7b3146102715780631521b7471461029a575b600080fd5b3480156101ad57600080fd5b506101c860048036038101906101c39190612d69565b610661565b6040516101d591906132c8565b60405180910390f35b3480156101ea57600080fd5b506101f36106db565b6040516102009190613605565b60405180910390f35b34801561021557600080fd5b5061021e6106e0565b60405161022b91906132e3565b60405180910390f35b34801561024057600080fd5b5061025b60048036038101906102569190612dfc565b610772565b6040516102689190613261565b60405180910390f35b34801561027d57600080fd5b5061029860048036038101906102939190612d2d565b6107f7565b005b6102b460048036038101906102af9190612dfc565b61090f565b005b3480156102c257600080fd5b506102cb610bfb565b6040516102d89190613605565b60405180910390f35b3480156102ed57600080fd5b5061030860048036038101906103039190612c27565b610c08565b005b34801561031657600080fd5b50610331600480360381019061032c9190612d2d565b610c68565b60405161033e9190613605565b60405180910390f35b34801561035357600080fd5b5061035c610d0d565b6040516103699190613605565b60405180910390f35b34801561037e57600080fd5b50610387610d13565b005b34801561039557600080fd5b5061039e610dbb565b005b3480156103ac57600080fd5b506103c760048036038101906103c29190612c27565b610e86565b005b3480156103d557600080fd5b506103f060048036038101906103eb9190612dfc565b610ea6565b6040516103fd9190613605565b60405180910390f35b34801561041257600080fd5b5061042d60048036038101906104289190612dbb565b610f3d565b005b34801561043b57600080fd5b5061045660048036038101906104519190612dfc565b610fd3565b6040516104639190613261565b60405180910390f35b34801561047857600080fd5b50610481611085565b60405161048e9190613605565b60405180910390f35b3480156104a357600080fd5b506104be60048036038101906104b99190612bc2565b611090565b6040516104cb9190613605565b60405180910390f35b3480156104e057600080fd5b506104e9611148565b005b3480156104f757600080fd5b50610500611285565b60405161050d9190613261565b60405180910390f35b34801561052257600080fd5b5061052b6112af565b60405161053891906132e3565b60405180910390f35b34801561054d57600080fd5b5061056860048036038101906105639190612cf1565b611341565b005b34801561057657600080fd5b50610591600480360381019061058c9190612c76565b6114c2565b005b34801561059f57600080fd5b506105ba60048036038101906105b59190612dfc565b611524565b6040516105c791906132e3565b60405180910390f35b3480156105dc57600080fd5b506105f760048036038101906105f29190612beb565b611697565b60405161060491906132c8565b60405180910390f35b34801561061957600080fd5b5061062261172b565b60405161062f91906132c8565b60405180910390f35b34801561064457600080fd5b5061065f600480360381019061065a9190612bc2565b61173e565b005b60007f780e9d63000000000000000000000000000000000000000000000000000000007bffffffffffffffffffffffffffffffffffffffffffffffffffffffff1916827bffffffffffffffffffffffffffffffffffffffffffffffffffffffff191614806106d457506106d3826118ea565b5b9050919050565b601481565b6060600080546106ef906138b5565b80601f016020809104026020016040519081016040528092919081815260200182805461071b906138b5565b80156107685780601f1061073d57610100808354040283529160200191610768565b820191906000526020600020905b81548152906001019060200180831161074b57829003601f168201915b5050505050905090565b600061077d826119cc565b6107bc576040517f08c379a00000000000000000000000000000000000000000000000000000000081526004016107b390613505565b60405180910390fd5b6004600083815260200190815260200160002060009054906101000a900473ffffffffffffffffffffffffffffffffffffffff169050919050565b600061080282610fd3565b90508073ffffffffffffffffffffffffffffffffffffffff168373ffffffffffffffffffffffffffffffffffffffff161415610873576040517f08c379a000000000000000000000000000000000000000000000000000000000815260040161086a90613585565b60405180910390fd5b8073ffffffffffffffffffffffffffffffffffffffff16610892611a38565b73ffffffffffffffffffffffffffffffffffffffff1614806108c157506108c0816108bb611a38565b611697565b5b610900576040517f08c379a00000000000000000000000000000000000000000000000000000000081526004016108f790613465565b60405180910390fd5b61090a8383611a40565b505050565b601461096382601060003373ffffffffffffffffffffffffffffffffffffffff1673ffffffffffffffffffffffffffffffffffffffff16815260200190815260200160002054611af990919063ffffffff16565b11156109a4576040517f08c379a000000000000000000000000000000000000000000000000000000000815260040161099b90613305565b60405180910390fd5b600c60009054906101000a900460ff166109f3576040517f08c379a00000000000000000000000000000000000000000000000000000000081526004016109ea906135e5565b60405180910390fd5b60008111610a36576040517f08c379a0000000000000000000000000000000000000000000000000000000008152600401610a2d90613325565b60405180910390fd5b600b54610a5382610a45610bfb565b611af990919063ffffffff16565b1115610a94576040517f08c379a0000000000000000000000000000000000000000000000000000000008152600401610a8b90613425565b60405180910390fd5b6014811115610ad8576040517f08c379a0000000000000000000000000000000000000000000000000000000008152600401610acf90613445565b60405180910390fd5b34610af3826611c37937e08000611b0f90919063ffffffff16565b14610b33576040517f08c379a0000000000000000000000000000000000000000000000000000000008152600401610b2a906134c5565b60405180910390fd5b610b8581601060003373ffffffffffffffffffffffffffffffffffffffff1673ffffffffffffffffffffffffffffffffffffffff16815260200190815260200160002054611af990919063ffffffff16565b601060003373ffffffffffffffffffffffffffffffffffffffff1673ffffffffffffffffffffffffffffffffffffffff1681526020019081526020016000208190555060005b81811015610bf757610be433610bdf610bfb565b611b25565b8080610bef90613918565b915050610bcb565b5050565b6000600880549050905090565b610c19610c13611a38565b82611b43565b610c58576040517f08c379a0000000000000000000000000000000000000000000000000000000008152600401610c4f906135a5565b60405180910390fd5b610c63838383611c21565b505050565b6000610c7383611090565b8210610cb4576040517f08c379a0000000000000000000000000000000000000000000000000000000008152600401610cab90613345565b60405180910390fd5b600660008473ffffffffffffffffffffffffffffffffffffffff1673ffffffffffffffffffffffffffffffffffffffff168152602001908152602001600020600083815260200190815260200160002054905092915050565b600b5481565b610d1b611a38565b73ffffffffffffffffffffffffffffffffffffffff16610d39611285565b73ffffffffffffffffffffffffffffffffffffffff1614610d8f576040517f08c379a0000000000000000000000000000000000000000000000000000000008152600401610d8690613525565b60405180910390fd5b600c60009054906101000a900460ff1615600c60006101000a81548160ff021916908315150217905550565b610dc3611a38565b73ffffffffffffffffffffffffffffffffffffffff16610de1611285565b73ffffffffffffffffffffffffffffffffffffffff1614610e37576040517f08c379a0000000000000000000000000000000000000000000000000000000008152600401610e2e90613525565b60405180910390fd5b60004790503373ffffffffffffffffffffffffffffffffffffffff166108fc829081150290604051600060405180830381858888f19350505050158015610e82573d6000803e3d6000fd5b5050565b610ea1838383604051806020016040528060008152506114c2565b505050565b6000610eb0610bfb565b8210610ef1576040517f08c379a0000000000000000000000000000000000000000000000000000000008152600401610ee8906135c5565b60405180910390fd5b60088281548110610f2b577f4e487b7100000000000000000000000000000000000000000000000000000000600052603260045260246000fd5b90600052602060002001549050919050565b610f45611a38565b73ffffffffffffffffffffffffffffffffffffffff16610f63611285565b73ffffffffffffffffffffffffffffffffffffffff1614610fb9576040517f08c379a0000000000000000000000000000000000000000000000000000000008152600401610fb090613525565b60405180910390fd5b80600d9080519060200190610fcf9291906129e6565b5050565b6000806002600084815260200190815260200160002060009054906101000a900473ffffffffffffffffffffffffffffffffffffffff169050600073ffffffffffffffffffffffffffffffffffffffff168173ffffffffffffffffffffffffffffffffffffffff16141561107c576040517f08c379a0000000000000000000000000000000000000000000000000000000008152600401611073906134a5565b60405180910390fd5b80915050919050565b6611c37937e0800081565b60008073ffffffffffffffffffffffffffffffffffffffff168273ffffffffffffffffffffffffffffffffffffffff161415611101576040517f08c379a00000000000000000000000000000000000000000000000000000000081526004016110f890613485565b60405180910390fd5b600360008373ffffffffffffffffffffffffffffffffffffffff1673ffffffffffffffffffffffffffffffffffffffff168152602001908152602001600020549050919050565b611150611a38565b73ffffffffffffffffffffffffffffffffffffffff1661116e611285565b73ffffffffffffffffffffffffffffffffffffffff16146111c4576040517f08c379a00000000000000000000000000000000000000000000000000000000081526004016111bb90613525565b60405180910390fd5b600073ffffffffffffffffffffffffffffffffffffffff16600a60009054906101000a900473ffffffffffffffffffffffffffffffffffffffff1673ffffffffffffffffffffffffffffffffffffffff167f8be0079c531659141344cd1fd0a4f28419497f9722a3daafe3b4186f6b6457e060405160405180910390a36000600a60006101000a81548173ffffffffffffffffffffffffffffffffffffffff021916908373ffffffffffffffffffffffffffffffffffffffff160217905550565b6000600a60009054906101000a900473ffffffffffffffffffffffffffffffffffffffff16905090565b6060600180546112be906138b5565b80601f01602080910402602001604051908101604052809291908181526020018280546112ea906138b5565b80156113375780601f1061130c57610100808354040283529160200191611337565b820191906000526020600020905b81548152906001019060200180831161131a57829003601f168201915b5050505050905090565b611349611a38565b73ffffffffffffffffffffffffffffffffffffffff168273ffffffffffffffffffffffffffffffffffffffff1614156113b7576040517f08c379a00000000000000000000000000000000000000000000000000000000081526004016113ae906133e5565b60405180910390fd5b80600560006113c4611a38565b73ffffffffffffffffffffffffffffffffffffffff1673ffffffffffffffffffffffffffffffffffffffff16815260200190815260200160002060008473ffffffffffffffffffffffffffffffffffffffff1673ffffffffffffffffffffffffffffffffffffffff16815260200190815260200160002060006101000a81548160ff0219169083151502179055508173ffffffffffffffffffffffffffffffffffffffff16611471611a38565b73ffffffffffffffffffffffffffffffffffffffff167f17307eab39ab6107e8899845ad3d59bd9653f200f220920489ca2b5937696c31836040516114b691906132c8565b60405180910390a35050565b6114d36114cd611a38565b83611b43565b611512576040517f08c379a0000000000000000000000000000000000000000000000000000000008152600401611509906135a5565b60405180910390fd5b61151e84848484611e7d565b50505050565b606061152f826119cc565b61156e576040517f08c379a000000000000000000000000000000000000000000000000000000000815260040161156590613565565b60405180910390fd5b6000600e6000848152602001908152602001600020805461158e906138b5565b80601f01602080910402602001604051908101604052809291908181526020018280546115ba906138b5565b80156116075780601f106115dc57610100808354040283529160200191611607565b820191906000526020600020905b8154815290600101906020018083116115ea57829003601f168201915b505050505090506000611618611ed9565b905060008151141561162e578192505050611692565b60008251111561166357808260405160200161164b92919061323d565b60405160208183030381529060405292505050611692565b8061166d85611f6b565b60405160200161167e92919061323d565b604051602081830303815290604052925050505b919050565b6000600560008473ffffffffffffffffffffffffffffffffffffffff1673ffffffffffffffffffffffffffffffffffffffff16815260200190815260200160002060008373ffffffffffffffffffffffffffffffffffffffff1673ffffffffffffffffffffffffffffffffffffffff16815260200190815260200160002060009054906101000a900460ff16905092915050565b600c60009054906101000a900460ff1681565b611746611a38565b73ffffffffffffffffffffffffffffffffffffffff16611764611285565b73ffffffffffffffffffffffffffffffffffffffff16146117ba576040517f08c379a00000000000000000000000000000000000000000000000000000000081526004016117b190613525565b60405180910390fd5b600073ffffffffffffffffffffffffffffffffffffffff168173ffffffffffffffffffffffffffffffffffffffff16141561182a576040517f08c379a000000000000000000000000000000000000000000000000000000000815260040161182190613385565b60405180910390fd5b8073ffffffffffffffffffffffffffffffffffffffff16600a60009054906101000a900473ffffffffffffffffffffffffffffffffffffffff1673ffffffffffffffffffffffffffffffffffffffff167f8be0079c531659141344cd1fd0a4f28419497f9722a3daafe3b4186f6b6457e060405160405180910390a380600a60006101000a81548173ffffffffffffffffffffffffffffffffffffffff021916908373ffffffffffffffffffffffffffffffffffffffff16021790555050565b60007f80ac58cd000000000000000000000000000000000000000000000000000000007bffffffffffffffffffffffffffffffffffffffffffffffffffffffff1916827bffffffffffffffffffffffffffffffffffffffffffffffffffffffff191614806119b557507f5b5e139f000000000000000000000000000000000000000000000000000000007bffffffffffffffffffffffffffffffffffffffffffffffffffffffff1916827bffffffffffffffffffffffffffffffffffffffffffffffffffffffff1916145b806119c557506119c482612118565b5b9050919050565b60008073ffffffffffffffffffffffffffffffffffffffff166002600084815260200190815260200160002060009054906101000a900473ffffffffffffffffffffffffffffffffffffffff1673ffffffffffffffffffffffffffffffffffffffff1614159050919050565b600033905090565b816004600083815260200190815260200160002060006101000a81548173ffffffffffffffffffffffffffffffffffffffff021916908373ffffffffffffffffffffffffffffffffffffffff160217905550808273ffffffffffffffffffffffffffffffffffffffff16611ab383610fd3565b73ffffffffffffffffffffffffffffffffffffffff167f8c5be1e5ebec7d5bd14f71427d1e84f3dd0314c0f7b2291e5b200ac8c7c3b92560405160405180910390a45050565b60008183611b0791906136ea565b905092915050565b60008183611b1d9190613771565b905092915050565b611b3f828260405180602001604052806000815250612182565b5050565b6000611b4e826119cc565b611b8d576040517f08c379a0000000000000000000000000000000000000000000000000000000008152600401611b8490613405565b60405180910390fd5b6000611b9883610fd3565b90508073ffffffffffffffffffffffffffffffffffffffff168473ffffffffffffffffffffffffffffffffffffffff161480611c0757508373ffffffffffffffffffffffffffffffffffffffff16611bef84610772565b73ffffffffffffffffffffffffffffffffffffffff16145b80611c185750611c178185611697565b5b91505092915050565b8273ffffffffffffffffffffffffffffffffffffffff16611c4182610fd3565b73ffffffffffffffffffffffffffffffffffffffff1614611c97576040517f08c379a0000000000000000000000000000000000000000000000000000000008152600401611c8e90613545565b60405180910390fd5b600073ffffffffffffffffffffffffffffffffffffffff168273ffffffffffffffffffffffffffffffffffffffff161415611d07576040517f08c379a0000000000000000000000000000000000000000000000000000000008152600401611cfe906133c5565b60405180910390fd5b611d128383836121dd565b611d1d600082611a40565b6001600360008573ffffffffffffffffffffffffffffffffffffffff1673ffffffffffffffffffffffffffffffffffffffff1681526020019081526020016000206000828254611d6d91906137cb565b925050819055506001600360008473ffffffffffffffffffffffffffffffffffffffff1673ffffffffffffffffffffffffffffffffffffffff1681526020019081526020016000206000828254611dc491906136ea565b92505081905550816002600083815260200190815260200160002060006101000a81548173ffffffffffffffffffffffffffffffffffffffff021916908373ffffffffffffffffffffffffffffffffffffffff160217905550808273ffffffffffffffffffffffffffffffffffffffff168473ffffffffffffffffffffffffffffffffffffffff167fddf252ad1be2c89b69c2b068fc378daa952ba7f163c4a11628f55a4df523b3ef60405160405180910390a4505050565b611e88848484611c21565b611e94848484846122f1565b611ed3576040517f08c379a0000000000000000000000000000000000000000000000000000000008152600401611eca90613365565b60405180910390fd5b50505050565b6060600d8054611ee8906138b5565b80601f0160208091040260200160405190810160405280929190818152602001828054611f14906138b5565b8015611f615780601f10611f3657610100808354040283529160200191611f61565b820191906000526020600020905b815481529060010190602001808311611f4457829003601f168201915b5050505050905090565b60606000821415611fb3576040518060400160405280600181526020017f30000000000000000000000000000000000000000000000000000000000000008152509050612113565b600082905060005b60008214611fe5578080611fce90613918565b915050600a82611fde9190613740565b9150611fbb565b60008167ffffffffffffffff811115612027577f4e487b7100000000000000000000000000000000000000000000000000000000600052604160045260246000fd5b6040519080825280601f01601f1916602001820160405280156120595781602001600182028036833780820191505090505b5090505b6000851461210c5760018261207291906137cb565b9150600a856120819190613961565b603061208d91906136ea565b60f81b8183815181106120c9577f4e487b7100000000000000000000000000000000000000000000000000000000600052603260045260246000fd5b60200101907effffffffffffffffffffffffffffffffffffffffffffffffffffffffffffff1916908160001a905350600a856121059190613740565b945061205d565b8093505050505b919050565b60007f01ffc9a7000000000000000000000000000000000000000000000000000000007bffffffffffffffffffffffffffffffffffffffffffffffffffffffff1916827bffffffffffffffffffffffffffffffffffffffffffffffffffffffff1916149050919050565b61218c8383612488565b61219960008484846122f1565b6121d8576040517f08c379a00000000000000000000000000000000000000000000000000000000081526004016121cf90613365565b60405180910390fd5b505050565b6121e8838383612656565b600073ffffffffffffffffffffffffffffffffffffffff168373ffffffffffffffffffffffffffffffffffffffff16141561222b576122268161265b565b61226a565b8173ffffffffffffffffffffffffffffffffffffffff168373ffffffffffffffffffffffffffffffffffffffff16146122695761226883826126a4565b5b5b600073ffffffffffffffffffffffffffffffffffffffff168273ffffffffffffffffffffffffffffffffffffffff1614156122ad576122a881612811565b6122ec565b8273ffffffffffffffffffffffffffffffffffffffff168273ffffffffffffffffffffffffffffffffffffffff16146122eb576122ea8282612954565b5b5b505050565b60006123128473ffffffffffffffffffffffffffffffffffffffff166129d3565b1561247b578373ffffffffffffffffffffffffffffffffffffffff1663150b7a0261233b611a38565b8786866040518563ffffffff1660e01b815260040161235d949392919061327c565b602060405180830381600087803b15801561237757600080fd5b505af19250505080156123a857506040513d601f19601f820116820180604052508101906123a59190612d92565b60015b61242b573d80600081146123d8576040519150601f19603f3d011682016040523d82523d6000602084013e6123dd565b606091505b50600081511415612423576040517f08c379a000000000000000000000000000000000000000000000000000000000815260040161241a90613365565b60405180910390fd5b805181602001fd5b63150b7a0260e01b7bffffffffffffffffffffffffffffffffffffffffffffffffffffffff1916817bffffffffffffffffffffffffffffffffffffffffffffffffffffffff191614915050612480565b600190505b949350505050565b600073ffffffffffffffffffffffffffffffffffffffff168273ffffffffffffffffffffffffffffffffffffffff1614156124f8576040517f08c379a00000000000000000000000000000000000000000000000000000000081526004016124ef906134e5565b60405180910390fd5b612501816119cc565b15612541576040517f08c379a0000000000000000000000000000000000000000000000000000000008152600401612538906133a5565b60405180910390fd5b61254d600083836121dd565b6001600360008473ffffffffffffffffffffffffffffffffffffffff1673ffffffffffffffffffffffffffffffffffffffff168152602001908152602001600020600082825461259d91906136ea565b92505081905550816002600083815260200190815260200160002060006101000a81548173ffffffffffffffffffffffffffffffffffffffff021916908373ffffffffffffffffffffffffffffffffffffffff160217905550808273ffffffffffffffffffffffffffffffffffffffff16600073ffffffffffffffffffffffffffffffffffffffff167fddf252ad1be2c89b69c2b068fc378daa952ba7f163c4a11628f55a4df523b3ef60405160405180910390a45050565b505050565b6008805490506009600083815260200190815260200160002081905550600881908060018154018082558091505060019003906000526020600020016000909190919091505550565b600060016126b184611090565b6126bb91906137cb565b90506000600760008481526020019081526020016000205490508181146127a0576000600660008673ffffffffffffffffffffffffffffffffffffffff1673ffffffffffffffffffffffffffffffffffffffff168152602001908152602001600020600084815260200190815260200160002054905080600660008773ffffffffffffffffffffffffffffffffffffffff1673ffffffffffffffffffffffffffffffffffffffff168152602001908152602001600020600084815260200190815260200160002081905550816007600083815260200190815260200160002081905550505b6007600084815260200190815260200160002060009055600660008573ffffffffffffffffffffffffffffffffffffffff1673ffffffffffffffffffffffffffffffffffffffff16815260200190815260200160002060008381526020019081526020016000206000905550505050565b6000600160088054905061282591906137cb565b905060006009600084815260200190815260200160002054905060006008838154811061287b577f4e487b7100000000000000000000000000000000000000000000000000000000600052603260045260246000fd5b9060005260206000200154905080600883815481106128c3577f4e487b7100000000000000000000000000000000000000000000000000000000600052603260045260246000fd5b906000526020600020018190555081600960008381526020019081526020016000208190555060096000858152602001908152602001600020600090556008805480612938577f4e487b7100000000000000000000000000000000000000000000000000000000600052603160045260246000fd5b6001900381819060005260206000200160009055905550505050565b600061295f83611090565b905081600660008573ffffffffffffffffffffffffffffffffffffffff1673ffffffffffffffffffffffffffffffffffffffff168152602001908152602001600020600083815260200190815260200160002081905550806007600084815260200190815260200160002081905550505050565b600080823b905060008111915050919050565b8280546129f2906138b5565b90600052602060002090601f016020900481019282612a145760008555612a5b565b82601f10612a2d57805160ff1916838001178555612a5b565b82800160010185558215612a5b579182015b82811115612a5a578251825591602001919060010190612a3f565b5b509050612a689190612a6c565b5090565b5b80821115612a85576000816000905550600101612a6d565b5090565b6000612a9c612a9784613645565b613620565b905082815260208101848484011115612ab457600080fd5b612abf848285613873565b509392505050565b6000612ada612ad584613676565b613620565b905082815260208101848484011115612af257600080fd5b612afd848285613873565b509392505050565b600081359050612b14816140e3565b92915050565b600081359050612b29816140fa565b92915050565b600081359050612b3e81614111565b92915050565b600081519050612b5381614111565b92915050565b600082601f830112612b6a57600080fd5b8135612b7a848260208601612a89565b91505092915050565b600082601f830112612b9457600080fd5b8135612ba4848260208601612ac7565b91505092915050565b600081359050612bbc81614128565b92915050565b600060208284031215612bd457600080fd5b6000612be284828501612b05565b91505092915050565b60008060408385031215612bfe57600080fd5b6000612c0c85828601612b05565b9250506020612c1d85828601612b05565b9150509250929050565b600080600060608486031215612c3c57600080fd5b6000612c4a86828701612b05565b9350506020612c5b86828701612b05565b9250506040612c6c86828701612bad565b9150509250925092565b60008060008060808587031215612c8c57600080fd5b6000612c9a87828801612b05565b9450506020612cab87828801612b05565b9350506040612cbc87828801612bad565b925050606085013567ffffffffffffffff811115612cd957600080fd5b612ce587828801612b59565b91505092959194509250565b60008060408385031215612d0457600080fd5b6000612d1285828601612b05565b9250506020612d2385828601612b1a565b9150509250929050565b60008060408385031215612d4057600080fd5b6000612d4e85828601612b05565b9250506020612d5f85828601612bad565b9150509250929050565b600060208284031215612d7b57600080fd5b6000612d8984828501612b2f565b91505092915050565b600060208284031215612da457600080fd5b6000612db284828501612b44565b91505092915050565b600060208284031215612dcd57600080fd5b600082013567ffffffffffffffff811115612de757600080fd5b612df384828501612b83565b91505092915050565b600060208284031215612e0e57600080fd5b6000612e1c84828501612bad565b91505092915050565b612e2e816137ff565b82525050565b612e3d81613811565b82525050565b6000612e4e826136a7565b612e5881856136bd565b9350612e68818560208601613882565b612e7181613a4e565b840191505092915050565b6000612e87826136b2565b612e9181856136ce565b9350612ea1818560208601613882565b612eaa81613a4e565b840191505092915050565b6000612ec0826136b2565b612eca81856136df565b9350612eda818560208601613882565b80840191505092915050565b6000612ef36022836136ce565b9150612efe82613a5f565b604082019050919050565b6000612f166033836136ce565b9150612f2182613aae565b604082019050919050565b6000612f39602b836136ce565b9150612f4482613afd565b604082019050919050565b6000612f5c6032836136ce565b9150612f6782613b4c565b604082019050919050565b6000612f7f6026836136ce565b9150612f8a82613b9b565b604082019050919050565b6000612fa2601c836136ce565b9150612fad82613bea565b602082019050919050565b6000612fc56024836136ce565b9150612fd082613c13565b604082019050919050565b6000612fe86019836136ce565b9150612ff382613c62565b602082019050919050565b600061300b602c836136ce565b915061301682613c8b565b604082019050919050565b600061302e602d836136ce565b915061303982613cda565b604082019050919050565b60006130516023836136ce565b915061305c82613d29565b604082019050919050565b60006130746038836136ce565b915061307f82613d78565b604082019050919050565b6000613097602a836136ce565b91506130a282613dc7565b604082019050919050565b60006130ba6029836136ce565b91506130c582613e16565b604082019050919050565b60006130dd601d836136ce565b91506130e882613e65565b602082019050919050565b60006131006020836136ce565b915061310b82613e8e565b602082019050919050565b6000613123602c836136ce565b915061312e82613eb7565b604082019050919050565b60006131466020836136ce565b915061315182613f06565b602082019050919050565b60006131696029836136ce565b915061317482613f2f565b604082019050919050565b600061318c602f836136ce565b915061319782613f7e565b604082019050919050565b60006131af6021836136ce565b91506131ba82613fcd565b604082019050919050565b60006131d26031836136ce565b91506131dd8261401c565b604082019050919050565b60006131f5602c836136ce565b91506132008261406b565b604082019050919050565b60006132186020836136ce565b9150613223826140ba565b602082019050919050565b61323781613869565b82525050565b60006132498285612eb5565b91506132558284612eb5565b91508190509392505050565b60006020820190506132766000830184612e25565b92915050565b60006080820190506132916000830187612e25565b61329e6020830186612e25565b6132ab604083018561322e565b81810360608301526132bd8184612e43565b905095945050505050565b60006020820190506132dd6000830184612e34565b92915050565b600060208201905081810360008301526132fd8184612e7c565b905092915050565b6000602082019050818103600083015261331e81612ee6565b9050919050565b6000602082019050818103600083015261333e81612f09565b9050919050565b6000602082019050818103600083015261335e81612f2c565b9050919050565b6000602082019050818103600083015261337e81612f4f565b9050919050565b6000602082019050818103600083015261339e81612f72565b9050919050565b600060208201905081810360008301526133be81612f95565b9050919050565b600060208201905081810360008301526133de81612fb8565b9050919050565b600060208201905081810360008301526133fe81612fdb565b9050919050565b6000602082019050818103600083015261341e81612ffe565b9050919050565b6000602082019050818103600083015261343e81613021565b9050919050565b6000602082019050818103600083015261345e81613044565b9050919050565b6000602082019050818103600083015261347e81613067565b9050919050565b6000602082019050818103600083015261349e8161308a565b9050919050565b600060208201905081810360008301526134be816130ad565b9050919050565b600060208201905081810360008301526134de816130d0565b9050919050565b600060208201905081810360008301526134fe816130f3565b9050919050565b6000602082019050818103600083015261351e81613116565b9050919050565b6000602082019050818103600083015261353e81613139565b9050919050565b6000602082019050818103600083015261355e8161315c565b9050919050565b6000602082019050818103600083015261357e8161317f565b9050919050565b6000602082019050818103600083015261359e816131a2565b9050919050565b600060208201905081810360008301526135be816131c5565b9050919050565b600060208201905081810360008301526135de816131e8565b9050919050565b600060208201905081810360008301526135fe8161320b565b9050919050565b600060208201905061361a600083018461322e565b92915050565b600061362a61363b565b905061363682826138e7565b919050565b6000604051905090565b600067ffffffffffffffff8211156136605761365f613a1f565b5b61366982613a4e565b9050602081019050919050565b600067ffffffffffffffff82111561369157613690613a1f565b5b61369a82613a4e565b9050602081019050919050565b600081519050919050565b600081519050919050565b600082825260208201905092915050565b600082825260208201905092915050565b600081905092915050565b60006136f582613869565b915061370083613869565b9250827fffffffffffffffffffffffffffffffffffffffffffffffffffffffffffffffff0382111561373557613734613992565b5b828201905092915050565b600061374b82613869565b915061375683613869565b925082613766576137656139c1565b5b828204905092915050565b600061377c82613869565b915061378783613869565b9250817fffffffffffffffffffffffffffffffffffffffffffffffffffffffffffffffff04831182151516156137c0576137bf613992565b5b828202905092915050565b60006137d682613869565b91506137e183613869565b9250828210156137f4576137f3613992565b5b828203905092915050565b600061380a82613849565b9050919050565b60008115159050919050565b60007fffffffff0000000000000000000000000000000000000000000000000000000082169050919050565b600073ffffffffffffffffffffffffffffffffffffffff82169050919050565b6000819050919050565b82818337600083830152505050565b60005b838110156138a0578082015181840152602081019050613885565b838111156138af576000848401525b50505050565b600060028204905060018216806138cd57607f821691505b602082108114156138e1576138e06139f0565b5b50919050565b6138f082613a4e565b810181811067ffffffffffffffff8211171561390f5761390e613a1f565b5b80604052505050565b600061392382613869565b91507fffffffffffffffffffffffffffffffffffffffffffffffffffffffffffffffff82141561395657613955613992565b5b600182019050919050565b600061396c82613869565b915061397783613869565b925082613987576139866139c1565b5b828206905092915050565b7f4e487b7100000000000000000000000000000000000000000000000000000000600052601160045260246000fd5b7f4e487b7100000000000000000000000000000000000000000000000000000000600052601260045260246000fd5b7f4e487b7100000000000000000000000000000000000000000000000000000000600052602260045260246000fd5b7f4e487b7100000000000000000000000000000000000000000000000000000000600052604160045260246000fd5b6000601f19601f8301169050919050565b7f43616e206f6e6c79206d696e7420757020746f2032302070657220616464726560008201527f7373000000000000000000000000000000000000000000000000000000000000602082015250565b7f4e756d626572206f6620746f6b656e732063616e206e6f74206265206c65737360008201527f207468616e206f7220657175616c20746f203000000000000000000000000000602082015250565b7f455243373231456e756d657261626c653a206f776e657220696e646578206f7560008201527f74206f6620626f756e6473000000000000000000000000000000000000000000602082015250565b7f4552433732313a207472616e7366657220746f206e6f6e20455243373231526560008201527f63656976657220696d706c656d656e7465720000000000000000000000000000602082015250565b7f4f776e61626c653a206e6577206f776e657220697320746865207a65726f206160008201527f6464726573730000000000000000000000000000000000000000000000000000602082015250565b7f4552433732313a20746f6b656e20616c7265616479206d696e74656400000000600082015250565b7f4552433732313a207472616e7366657220746f20746865207a65726f2061646460008201527f7265737300000000000000000000000000000000000000000000000000000000602082015250565b7f4552433732313a20617070726f766520746f2063616c6c657200000000000000600082015250565b7f4552433732313a206f70657261746f7220717565727920666f72206e6f6e657860008201527f697374656e7420746f6b656e0000000000000000000000000000000000000000602082015250565b7f507572636861736520776f756c6420657863656564206d617820737570706c7960008201527f206f66204f70746950756e6b7300000000000000000000000000000000000000602082015250565b7f43616e206f6e6c79206d696e7420757020746f2032302070657220707572636860008201527f6173650000000000000000000000000000000000000000000000000000000000602082015250565b7f4552433732313a20617070726f76652063616c6c6572206973206e6f74206f7760008201527f6e6572206e6f7220617070726f76656420666f7220616c6c0000000000000000602082015250565b7f4552433732313a2062616c616e636520717565727920666f7220746865207a6560008201527f726f206164647265737300000000000000000000000000000000000000000000602082015250565b7f4552433732313a206f776e657220717565727920666f72206e6f6e657869737460008201527f656e7420746f6b656e0000000000000000000000000000000000000000000000602082015250565b7f53656e742065746865722076616c756520697320696e636f7272656374000000600082015250565b7f4552433732313a206d696e7420746f20746865207a65726f2061646472657373600082015250565b7f4552433732313a20617070726f76656420717565727920666f72206e6f6e657860008201527f697374656e7420746f6b656e0000000000000000000000000000000000000000602082015250565b7f4f776e61626c653a2063616c6c6572206973206e6f7420746865206f776e6572600082015250565b7f4552433732313a207472616e73666572206f6620746f6b656e2074686174206960008201527f73206e6f74206f776e0000000000000000000000000000000000000000000000602082015250565b7f4552433732314d657461646174613a2055524920717565727920666f72206e6f60008201527f6e6578697374656e7420746f6b656e0000000000000000000000000000000000602082015250565b7f4552433732313a20617070726f76616c20746f2063757272656e74206f776e6560008201527f7200000000000000000000000000000000000000000000000000000000000000602082015250565b7f4552433732313a207472616e736665722063616c6c6572206973206e6f74206f60008201527f776e6572206e6f7220617070726f766564000000000000000000000000000000602082015250565b7f455243373231456e756d657261626c653a20676c6f62616c20696e646578206f60008201527f7574206f6620626f756e64730000000000000000000000000000000000000000602082015250565b7f53616c65206973206e6f742061637469766520617420746865206d6f6d656e74600082015250565b6140ec816137ff565b81146140f757600080fd5b50565b61410381613811565b811461410e57600080fd5b50565b61411a8161381d565b811461412557600080fd5b50565b61413181613869565b811461413c57600080fd5b5056fea26469706673582212204bb0c91f0d66e2625e16544f35cb3f31917852dbc23882dd2b6f53b7722ba5da64736f6c63430008010033",
  "linkReferences": {},
  "deployedLinkReferences": {}
}